{
  "contractName": "ERC734KeyManager",
  "abi": [
    {
      "anonymous": false,
      "inputs": [
        {
          "indexed": true,
          "internalType": "bytes32",
          "name": "key",
          "type": "bytes32"
        },
        {
          "indexed": true,
          "internalType": "uint256",
          "name": "purposes",
          "type": "uint256"
        },
        {
          "indexed": true,
          "internalType": "uint256",
          "name": "keyType",
          "type": "uint256"
        }
      ],
      "name": "KeyRemoved",
      "type": "event"
    },
    {
      "anonymous": false,
      "inputs": [
        {
          "indexed": true,
          "internalType": "bytes32",
          "name": "key",
          "type": "bytes32"
        },
        {
          "indexed": true,
          "internalType": "uint256",
          "name": "purposes",
          "type": "uint256"
        },
        {
          "indexed": true,
          "internalType": "uint256",
          "name": "keyType",
          "type": "uint256"
        }
      ],
      "name": "KeySet",
      "type": "event"
    },
    {
      "inputs": [],
      "name": "initialize",
      "outputs": [],
      "stateMutability": "nonpayable",
      "type": "function"
    },
    {
      "inputs": [
        {
          "internalType": "bytes32",
          "name": "_key",
          "type": "bytes32"
        }
      ],
      "name": "getKey",
      "outputs": [
        {
          "internalType": "uint256",
          "name": "_purposes",
          "type": "uint256"
        },
        {
          "internalType": "uint256",
          "name": "_keyType",
          "type": "uint256"
        }
      ],
      "stateMutability": "view",
      "type": "function"
    },
    {
      "inputs": [
        {
          "internalType": "bytes32",
          "name": "_key",
          "type": "bytes32"
        },
        {
          "internalType": "uint256",
          "name": "_purpose",
          "type": "uint256"
        }
      ],
      "name": "keyHasPurpose",
      "outputs": [
        {
          "internalType": "bool",
          "name": "",
          "type": "bool"
        }
      ],
      "stateMutability": "view",
      "type": "function"
    },
    {
      "inputs": [
        {
          "internalType": "bytes32",
          "name": "_key",
          "type": "bytes32"
        },
        {
          "internalType": "uint256",
          "name": "_purposes",
          "type": "uint256"
        },
        {
          "internalType": "uint256",
          "name": "_keyType",
          "type": "uint256"
        }
      ],
      "name": "setKey",
      "outputs": [],
      "stateMutability": "nonpayable",
      "type": "function"
    },
    {
      "inputs": [
        {
          "internalType": "bytes32",
          "name": "_key",
          "type": "bytes32"
        }
      ],
      "name": "removeKey",
      "outputs": [],
      "stateMutability": "nonpayable",
      "type": "function"
    }
  ],
  "bytecode": "0x608060405234801561001057600080fd5b506107d5806100206000396000f3fe608060405234801561001057600080fd5b50600436106100575760003560e01c806312aaac701461005c5780638129fc1c146100a5578063833f9f9d146100af578063862642f5146100f1578063d202158d1461011f575b600080fd5b6100886004803603602081101561007257600080fd5b810190808035906020019092919050505061016f565b604051808381526020018281526020019250505060405180910390f35b6100ad6101a7565b005b6100ef600480360360608110156100c557600080fd5b810190808035906020019092919080359060200190929190803590602001909291905050506102d7565b005b61011d6004803603602081101561010757600080fd5b81019080803590602001909291905050506104be565b005b6101556004803603604081101561013557600080fd5b8101908080359060200190929190803590602001909291905050506106d8565b604051808215151515815260200191505060405180910390f35b600080600080848152602001908152602001600020600001546000808581526020019081526020016000206001015491509150915091565b600160009054906101000a900460ff161561022a576040517f08c379a000000000000000000000000000000000000000000000000000000000815260040180806020018281038252601c8152602001807f636f6e74726163742d616c72656164792d696e697469616c697a65640000000081525060200191505060405180910390fd5b60018060006101000a81548160ff021916908315150217905550600033604051602001808273ffffffffffffffffffffffffffffffffffffffff1673ffffffffffffffffffffffffffffffffffffffff1660601b815260140191505060405160208183030381529060405280519060200120905060016000808381526020019081526020016000206001018190555060016000808381526020019081526020016000206000018190555050565b3073ffffffffffffffffffffffffffffffffffffffff163373ffffffffffffffffffffffffffffffffffffffff16146103dd5761036a33604051602001808273ffffffffffffffffffffffffffffffffffffffff1673ffffffffffffffffffffffffffffffffffffffff1660601b81526014019150506040516020818303038152906040528051906020012060016106d8565b6103dc576040517f08c379a000000000000000000000000000000000000000000000000000000000815260040180806020018281038252601f8152602001807f73656e6465722d6d7573742d686176652d6d616e6167656d656e742d6b65790081525060200191505060405180910390fd5b5b6000801b831415610456576040517f08c379a000000000000000000000000000000000000000000000000000000000815260040180806020018281038252600b8152602001807f696e76616c69642d6b657900000000000000000000000000000000000000000081525060200191505060405180910390fd5b816000808581526020019081526020016000206000018190555080600080858152602001908152602001600020600101819055508082847fe767bcb78b54c98a59a092fa283736e294b7089c620de282ce948c46f1c2246560405160405180910390a4505050565b3073ffffffffffffffffffffffffffffffffffffffff163373ffffffffffffffffffffffffffffffffffffffff16146105c45761055133604051602001808273ffffffffffffffffffffffffffffffffffffffff1673ffffffffffffffffffffffffffffffffffffffff1660601b81526014019150506040516020818303038152906040528051906020012060016106d8565b6105c3576040517f08c379a000000000000000000000000000000000000000000000000000000000815260040180806020018281038252601f8152602001807f73656e6465722d6d7573742d686176652d6d616e6167656d656e742d6b65790081525060200191505060405180910390fd5b5b6000801b81141561063d576040517f08c379a000000000000000000000000000000000000000000000000000000000815260040180806020018281038252600b8152602001807f696e76616c69642d6b657900000000000000000000000000000000000000000081525060200191505060405180910390fd5b610645610785565b6000808381526020019081526020016000206040518060400160405290816000820154815260200160018201548152505090506000808381526020019081526020016000206000808201600090556001820160009055505080602001518160000151837f585a4aef50f8267a92b32412b331b20f7f8b96f2245b253b9cc50dcc621d339760405160405180910390a45050565b60008082141580156106ef57506000600183038316145b610761576040517f08c379a000000000000000000000000000000000000000000000000000000000815260040180806020018281038252601a8152602001807f707572706f73652d6d7573742d62652d706f7765722d6f662d3200000000000081525060200191505060405180910390fd5b60008260008086815260200190815260200160002060000154161415905092915050565b60405180604001604052806000815260200160008152509056fea264697066735822122042c448e0240aaa500ef4285547139f31783faf472c05dea613348bcdf7b864eb64736f6c634300060a0033",
  "immutableReferences": {},
  "source": "// SPDX-License-Identifier: Apache-2.0\npragma solidity ^0.6.1;\n\n// NOTE: this contract is not fully tested!\n\ncontract ERC734KeyManager {\n    event KeySet(\n        bytes32 indexed key,\n        uint256 indexed purposes,\n        uint256 indexed keyType\n    );\n    event KeyRemoved(\n        bytes32 indexed key,\n        uint256 indexed purposes,\n        uint256 indexed keyType\n    );\n\n    uint256 constant MANAGEMENT_KEY = 1;\n    uint256 constant EXECUTION_KEY = 2;\n\n    uint256 constant ECDSA_TYPE = 1;\n    uint256 constant RSA_TYPE = 2;\n\n    struct Key {\n        // Purposes are represented via bitmasks\n        // Maximum number of purposes is 256 and must be integers that are power of 2 e.g.:\n        // 1, 2, 4, 8, 16, 32, 64 ...\n        // All other integers represent multiple purposes e.g:\n        // Integer 3 (011) represent both 1 (001) and 2 (010) purpose\n        uint256 purposes;\n        uint256 keyType;\n    }\n\n    mapping(bytes32 => Key) keys;\n    bool initialized;\n\n    modifier onlyManagementKeyOrSelf() {\n        if (msg.sender != address(this)) {\n            require(\n                keyHasPurpose(\n                    keccak256(abi.encodePacked(msg.sender)),\n                    MANAGEMENT_KEY\n                ),\n                \"sender-must-have-management-key\"\n            );\n        }\n        _;\n    }\n\n    function initialize() public {\n        require(!initialized, \"contract-already-initialized\");\n        initialized = true;\n        bytes32 key = keccak256(abi.encodePacked(msg.sender));\n        keys[key].keyType = ECDSA_TYPE;\n        keys[key].purposes = MANAGEMENT_KEY;\n    }\n\n    function getKey(bytes32 _key)\n        public\n        view\n        returns (uint256 _purposes, uint256 _keyType)\n    {\n        return (keys[_key].purposes, keys[_key].keyType);\n    }\n\n    function keyHasPurpose(bytes32 _key, uint256 _purpose)\n        public\n        view\n        returns (bool)\n    {\n        // Only purposes that are power of 2 are allowed e.g.:\n        // 1, 2, 4, 8, 16, 32, 64 ...\n        // Integers that represent multiple purposes are not allowed\n        require(\n            _purpose != 0 && (_purpose & (_purpose - uint256(1))) == 0,\n            \"purpose-must-be-power-of-2\"\n        );\n        return (keys[_key].purposes & _purpose) != 0;\n    }\n\n    function setKey(\n        bytes32 _key,\n        uint256 _purposes,\n        uint256 _keyType\n    ) public onlyManagementKeyOrSelf {\n        require(_key != 0x0, \"invalid-key\");\n        keys[_key].purposes = _purposes;\n        keys[_key].keyType = _keyType;\n        emit KeySet(_key, _purposes, _keyType);\n    }\n\n    function removeKey(bytes32 _key) public onlyManagementKeyOrSelf {\n        require(_key != 0x0, \"invalid-key\");\n        Key memory key = keys[_key];\n        delete keys[_key];\n        emit KeyRemoved(_key, key.purposes, key.keyType);\n    }\n}\n",
  "sourcePath": "/Users/azlan/Projects/mampu/training/identity/test-id/contracts/ERC734KeyManager.sol",
  "compiler": {
    "name": "solc",
    "version": "0.6.10+commit.00c0fcaf.Emscripten.clang"
  },
  "schemaVersion": "3.2.5",
  "updatedAt": "2020-10-27T16:15:15.165Z",
  "devdoc": {
    "methods": {}
  },
  "userdoc": {
    "methods": {}
  }
}