{
  "contractName": "ERC725X",
  "abi": [
    {
      "inputs": [
        {
          "internalType": "address",
          "name": "_newOwner",
          "type": "address"
        }
      ],
      "stateMutability": "nonpayable",
      "type": "constructor"
    },
    {
      "anonymous": false,
      "inputs": [
        {
          "indexed": true,
          "internalType": "address",
          "name": "contractAddress",
          "type": "address"
        }
      ],
      "name": "ContractCreated",
      "type": "event"
    },
    {
      "anonymous": false,
      "inputs": [
        {
          "indexed": true,
          "internalType": "uint256",
          "name": "_operation",
          "type": "uint256"
        },
        {
          "indexed": true,
          "internalType": "address",
          "name": "_to",
          "type": "address"
        },
        {
          "indexed": true,
          "internalType": "uint256",
          "name": "_value",
          "type": "uint256"
        },
        {
          "indexed": false,
          "internalType": "bytes",
          "name": "_data",
          "type": "bytes"
        }
      ],
      "name": "Executed",
      "type": "event"
    },
    {
      "anonymous": false,
      "inputs": [
        {
          "indexed": true,
          "internalType": "address",
          "name": "previousOwner",
          "type": "address"
        },
        {
          "indexed": true,
          "internalType": "address",
          "name": "newOwner",
          "type": "address"
        }
      ],
      "name": "OwnershipTransferred",
      "type": "event"
    },
    {
      "inputs": [],
      "name": "owner",
      "outputs": [
        {
          "internalType": "address",
          "name": "",
          "type": "address"
        }
      ],
      "stateMutability": "view",
      "type": "function"
    },
    {
      "inputs": [],
      "name": "renounceOwnership",
      "outputs": [],
      "stateMutability": "nonpayable",
      "type": "function"
    },
    {
      "inputs": [
        {
          "internalType": "bytes4",
          "name": "interfaceId",
          "type": "bytes4"
        }
      ],
      "name": "supportsInterface",
      "outputs": [
        {
          "internalType": "bool",
          "name": "",
          "type": "bool"
        }
      ],
      "stateMutability": "view",
      "type": "function"
    },
    {
      "inputs": [
        {
          "internalType": "address",
          "name": "newOwner",
          "type": "address"
        }
      ],
      "name": "transferOwnership",
      "outputs": [],
      "stateMutability": "nonpayable",
      "type": "function"
    },
    {
      "inputs": [
        {
          "internalType": "uint256",
          "name": "_operation",
          "type": "uint256"
        },
        {
          "internalType": "address",
          "name": "_to",
          "type": "address"
        },
        {
          "internalType": "uint256",
          "name": "_value",
          "type": "uint256"
        },
        {
          "internalType": "bytes",
          "name": "_data",
          "type": "bytes"
        }
      ],
      "name": "execute",
      "outputs": [],
      "stateMutability": "payable",
      "type": "function"
    }
  ],
  "bytecode": "0x60806040523480156200001157600080fd5b506040516200147738038062001477833981810160405260208110156200003757600080fd5b8101908080519060200190929190505050620000606301ffc9a760e01b6200018560201b60201c565b6000620000726200028e60201b60201c565b905080600160006101000a81548173ffffffffffffffffffffffffffffffffffffffff021916908373ffffffffffffffffffffffffffffffffffffffff1602179055508073ffffffffffffffffffffffffffffffffffffffff16600073ffffffffffffffffffffffffffffffffffffffff167f8be0079c531659141344cd1fd0a4f28419497f9722a3daafe3b4186f6b6457e060405160405180910390a350620001216200029660201b60201c565b73ffffffffffffffffffffffffffffffffffffffff168173ffffffffffffffffffffffffffffffffffffffff161462000166576200016581620002c060201b60201c565b5b6200017e6344c028fe60e01b6200018560201b60201c565b50620004db565b63ffffffff60e01b817bffffffffffffffffffffffffffffffffffffffffffffffffffffffff1916141562000222576040517f08c379a000000000000000000000000000000000000000000000000000000000815260040180806020018281038252601c8152602001807f4552433136353a20696e76616c696420696e746572666163652069640000000081525060200191505060405180910390fd5b6001600080837bffffffffffffffffffffffffffffffffffffffffffffffffffffffff19167bffffffffffffffffffffffffffffffffffffffffffffffffffffffff1916815260200190815260200160002060006101000a81548160ff02191690831515021790555050565b600033905090565b6000600160009054906101000a900473ffffffffffffffffffffffffffffffffffffffff16905090565b620002d06200028e60201b60201c565b73ffffffffffffffffffffffffffffffffffffffff16600160009054906101000a900473ffffffffffffffffffffffffffffffffffffffff1673ffffffffffffffffffffffffffffffffffffffff161462000393576040517f08c379a00000000000000000000000000000000000000000000000000000000081526004018080602001828103825260208152602001807f4f776e61626c653a2063616c6c6572206973206e6f7420746865206f776e657281525060200191505060405180910390fd5b600073ffffffffffffffffffffffffffffffffffffffff168173ffffffffffffffffffffffffffffffffffffffff1614156200041b576040517f08c379a0000000000000000000000000000000000000000000000000000000008152600401808060200182810382526026815260200180620014516026913960400191505060405180910390fd5b8073ffffffffffffffffffffffffffffffffffffffff16600160009054906101000a900473ffffffffffffffffffffffffffffffffffffffff1673ffffffffffffffffffffffffffffffffffffffff167f8be0079c531659141344cd1fd0a4f28419497f9722a3daafe3b4186f6b6457e060405160405180910390a380600160006101000a81548173ffffffffffffffffffffffffffffffffffffffff021916908373ffffffffffffffffffffffffffffffffffffffff16021790555050565b610f6680620004eb6000396000f3fe60806040526004361061004a5760003560e01c806301ffc9a71461004f57806344c028fe146100c1578063715018a6146101b05780638da5cb5b146101c7578063f2fde38b1461021e575b600080fd5b34801561005b57600080fd5b506100a76004803603602081101561007257600080fd5b8101908080357bffffffffffffffffffffffffffffffffffffffffffffffffffffffff1916906020019092919050505061026f565b604051808215151515815260200191505060405180910390f35b6101ae600480360360808110156100d757600080fd5b8101908080359060200190929190803573ffffffffffffffffffffffffffffffffffffffff169060200190929190803590602001909291908035906020019064010000000081111561012857600080fd5b82018360208201111561013a57600080fd5b8035906020019184600183028401116401000000008311171561015c57600080fd5b91908080601f016020809104026020016040519081016040528093929190818152602001838380828437600081840152601f19601f8201169050808301925050505050505091929192905050506102d6565b005b3480156101bc57600080fd5b506101c5610592565b005b3480156101d357600080fd5b506101dc61071d565b604051808273ffffffffffffffffffffffffffffffffffffffff1673ffffffffffffffffffffffffffffffffffffffff16815260200191505060405180910390f35b34801561022a57600080fd5b5061026d6004803603602081101561024157600080fd5b81019080803573ffffffffffffffffffffffffffffffffffffffff169060200190929190505050610747565b005b6000806000837bffffffffffffffffffffffffffffffffffffffffffffffffffffffff19167bffffffffffffffffffffffffffffffffffffffffffffffffffffffff1916815260200190815260200160002060009054906101000a900460ff169050919050565b6102de610957565b73ffffffffffffffffffffffffffffffffffffffff16600160009054906101000a900473ffffffffffffffffffffffffffffffffffffffff1673ffffffffffffffffffffffffffffffffffffffff16146103a0576040517f08c379a00000000000000000000000000000000000000000000000000000000081526004018080602001828103825260208152602001807f4f776e61626c653a2063616c6c6572206973206e6f7420746865206f776e657281525060200191505060405180910390fd5b818373ffffffffffffffffffffffffffffffffffffffff16857f1f920dbda597d7bf95035464170fa58d0a4b57f13a1c315ace6793b9f63688b8846040518080602001828103825283818151815260200191508051906020019080838360005b8381101561041b578082015181840152602081019050610400565b50505050905090810190601f1680156104485780820380516001836020036101000a031916815260200191505b509250505060405180910390a460006109c45a0390506000851415610479576104738484848461095f565b5061058b565b60038514156104925761048c8383610978565b5061058a565b600285141561051b5760006104ab836020855103610a70565b905060606104bf8460006020875103610b7a565b905060006104ce868484610d60565b90508073ffffffffffffffffffffffffffffffffffffffff167fcf78cf0d6f3d8371e1075c69c492ab4ec5d8cf23a1a239b6a51a1d00be7ca31260405160405180910390a2505050610589565b6040517f08c379a00000000000000000000000000000000000000000000000000000000081526004018080602001828103825260148152602001807f57726f6e67206f7065726174696f6e207479706500000000000000000000000081525060200191505060405180910390fd5b5b5b5050505050565b61059a610957565b73ffffffffffffffffffffffffffffffffffffffff16600160009054906101000a900473ffffffffffffffffffffffffffffffffffffffff1673ffffffffffffffffffffffffffffffffffffffff161461065c576040517f08c379a00000000000000000000000000000000000000000000000000000000081526004018080602001828103825260208152602001807f4f776e61626c653a2063616c6c6572206973206e6f7420746865206f776e657281525060200191505060405180910390fd5b600073ffffffffffffffffffffffffffffffffffffffff16600160009054906101000a900473ffffffffffffffffffffffffffffffffffffffff1673ffffffffffffffffffffffffffffffffffffffff167f8be0079c531659141344cd1fd0a4f28419497f9722a3daafe3b4186f6b6457e060405160405180910390a36000600160006101000a81548173ffffffffffffffffffffffffffffffffffffffff021916908373ffffffffffffffffffffffffffffffffffffffff160217905550565b6000600160009054906101000a900473ffffffffffffffffffffffffffffffffffffffff16905090565b61074f610957565b73ffffffffffffffffffffffffffffffffffffffff16600160009054906101000a900473ffffffffffffffffffffffffffffffffffffffff1673ffffffffffffffffffffffffffffffffffffffff1614610811576040517f08c379a00000000000000000000000000000000000000000000000000000000081526004018080602001828103825260208152602001807f4f776e61626c653a2063616c6c6572206973206e6f7420746865206f776e657281525060200191505060405180910390fd5b600073ffffffffffffffffffffffffffffffffffffffff168173ffffffffffffffffffffffffffffffffffffffff161415610897576040517f08c379a0000000000000000000000000000000000000000000000000000000008152600401808060200182810382526026815260200180610f0b6026913960400191505060405180910390fd5b8073ffffffffffffffffffffffffffffffffffffffff16600160009054906101000a900473ffffffffffffffffffffffffffffffffffffffff1673ffffffffffffffffffffffffffffffffffffffff167f8be0079c531659141344cd1fd0a4f28419497f9722a3daafe3b4186f6b6457e060405160405180910390a380600160006101000a81548173ffffffffffffffffffffffffffffffffffffffff021916908373ffffffffffffffffffffffffffffffffffffffff16021790555050565b600033905090565b6000806000845160208601878987f19050949350505050565b600081516020830184f09050600073ffffffffffffffffffffffffffffffffffffffff168173ffffffffffffffffffffffffffffffffffffffff161415610a27576040517f08c379a00000000000000000000000000000000000000000000000000000000081526004018080602001828103825260198152602001807f436f756c64206e6f74206465706c6f7920636f6e74726163740000000000000081525060200191505060405180910390fd5b8073ffffffffffffffffffffffffffffffffffffffff167fcf78cf0d6f3d8371e1075c69c492ab4ec5d8cf23a1a239b6a51a1d00be7ca31260405160405180910390a292915050565b600081602083011015610aeb576040517f08c379a00000000000000000000000000000000000000000000000000000000081526004018080602001828103825260128152602001807f746f427974657333325f6f766572666c6f77000000000000000000000000000081525060200191505060405180910390fd5b6020820183511015610b65576040517f08c379a00000000000000000000000000000000000000000000000000000000081526004018080602001828103825260158152602001807f746f427974657333325f6f75744f66426f756e6473000000000000000000000081525060200191505060405180910390fd5b60008260208501015190508091505092915050565b606081601f83011015610bf5576040517f08c379a000000000000000000000000000000000000000000000000000000000815260040180806020018281038252600e8152602001807f736c6963655f6f766572666c6f7700000000000000000000000000000000000081525060200191505060405180910390fd5b828284011015610c6d576040517f08c379a000000000000000000000000000000000000000000000000000000000815260040180806020018281038252600e8152602001807f736c6963655f6f766572666c6f7700000000000000000000000000000000000081525060200191505060405180910390fd5b81830184511015610ce6576040517f08c379a00000000000000000000000000000000000000000000000000000000081526004018080602001828103825260118152602001807f736c6963655f6f75744f66426f756e647300000000000000000000000000000081525060200191505060405180910390fd5b6060821560008114610d0357604051915060208201604052610d54565b6040519150601f8416801560200281840101858101878315602002848b0101015b81831015610d415780518352602083019250602081019050610d24565b50868552601f19601f8301166040525050505b50809150509392505050565b60008084471015610dd9576040517f08c379a000000000000000000000000000000000000000000000000000000000815260040180806020018281038252601d8152602001807f437265617465323a20696e73756666696369656e742062616c616e636500000081525060200191505060405180910390fd5b600083511415610e51576040517f08c379a00000000000000000000000000000000000000000000000000000000081526004018080602001828103825260208152602001807f437265617465323a2062797465636f6465206c656e677468206973207a65726f81525060200191505060405180910390fd5b8383516020850187f59050600073ffffffffffffffffffffffffffffffffffffffff168173ffffffffffffffffffffffffffffffffffffffff161415610eff576040517f08c379a00000000000000000000000000000000000000000000000000000000081526004018080602001828103825260198152602001807f437265617465323a204661696c6564206f6e206465706c6f790000000000000081525060200191505060405180910390fd5b80915050939250505056fe4f776e61626c653a206e6577206f776e657220697320746865207a65726f2061646472657373a2646970667358221220b0114f7e935c6d9151cfc526bb030e306f28d1d3619c2ab0c5f725b7b7a60c7264736f6c634300060a00334f776e61626c653a206e6577206f776e657220697320746865207a65726f2061646472657373",
  "immutableReferences": {},
  "source": "// SPDX-License-Identifier: Apache-2.0\npragma solidity ^0.6.0;\n\n// interfaces\nimport \"./IERC725X.sol\";\n\n// modules\nimport \"@openzeppelin/contracts/access/Ownable.sol\";\nimport \"@openzeppelin/contracts/introspection/ERC165.sol\";\n\n// libraries\nimport \"@openzeppelin/contracts/utils/Create2.sol\";\nimport \"solidity-bytes-utils/contracts/BytesLib.sol\";\n\n/**\n * @title ERC725 X executor\n * @dev Implementation of a contract module which provides the ability to call arbitrary functions at any other smart contract and itself,\n * including using `delegatecall`, as well creating contracts using `create` and `create2`.\n * This is the basis for a smart contract based account system, but could also be used as a proxy account system.\n *\n * `execute` MUST only be called by the owner of the contract set via ERC173.\n *\n *  @author Fabian Vogelsteller <fabian@lukso.network>\n */\ncontract ERC725X is ERC165, Ownable, IERC725X  {\n\n    bytes4 internal constant _INTERFACE_ID_ERC725X = 0x44c028fe;\n\n    uint256 constant OPERATION_CALL = 0;\n    uint256 constant OPERATION_DELEGATECALL = 1;\n    uint256 constant OPERATION_CREATE2 = 2;\n    uint256 constant OPERATION_CREATE = 3;\n\n    /**\n     * @notice Sets the owner of the contract\n     * @param _newOwner the owner of the contract.\n     */\n    constructor(address _newOwner) public {\n        // This is necessary to prevent a contract that implements both ERC725X and ERC725Y to call both constructors\n        if(_newOwner != owner()) {\n            transferOwnership(_newOwner);\n        }\n\n        _registerInterface(_INTERFACE_ID_ERC725X);\n    }\n\n    /* Public functions */\n\n    /**\n     * @notice Executes any other smart contract. Is only callable by the owner.\n     *\n     *\n     * @param _operation the operation to execute: CALL = 0; DELEGATECALL = 1; CREATE2 = 2; CREATE = 3;\n     * @param _to the smart contract or address to interact with. `_to` will be unused if a contract is created (operation 2 and 3)\n     * @param _value the value of ETH to transfer\n     * @param _data the call data, or the contract data to deploy\n     */\n    function execute(uint256 _operation, address _to, uint256 _value, bytes memory _data)\n    external\n    payable\n    override\n    onlyOwner\n    {\n        // emit event\n        emit Executed(_operation, _to, _value, _data);\n\n        uint256 txGas = gasleft() - 2500;\n\n        // CALL\n        if (_operation == OPERATION_CALL) {\n            executeCall(_to, _value, _data, txGas);\n\n        // DELEGATE CALL\n        // TODO: risky as storage slots can be overridden, remove?\n//        } else if (_operation == OPERATION_DELEGATECALL) {\n//            address currentOwner = owner();\n//            executeDelegateCall(_to, _data, txGas);\n//            // Check that the owner was not overridden\n//            require(owner() == currentOwner, \"Delegate call is not allowed to modify the owner!\");\n\n        // CREATE\n        } else if (_operation == OPERATION_CREATE) {\n            performCreate(_value, _data);\n\n        // CREATE2\n        } else if (_operation == OPERATION_CREATE2) {\n            bytes32 salt = BytesLib.toBytes32(_data, _data.length - 32);\n            bytes memory data = BytesLib.slice(_data, 0, _data.length - 32);\n\n            address contractAddress = Create2.deploy(_value, salt, data);\n\n            emit ContractCreated(contractAddress);\n\n        } else {\n            revert(\"Wrong operation type\");\n        }\n    }\n\n    /* Internal functions */\n\n    // Taken from GnosisSafe\n    // https://github.com/gnosis/safe-contracts/blob/development/contracts/base/Executor.sol\n    function executeCall(address to, uint256 value, bytes memory data, uint256 txGas)\n    internal\n    returns (bool success)\n    {\n        // solium-disable-next-line security/no-inline-assembly\n        assembly {\n            success := call(txGas, to, value, add(data, 0x20), mload(data), 0, 0)\n        }\n    }\n\n    // Taken from GnosisSafe\n    // https://github.com/gnosis/safe-contracts/blob/development/contracts/base/Executor.sol\n    function executeDelegateCall(address to, bytes memory data, uint256 txGas)\n    internal\n    returns (bool success)\n    {\n        // solium-disable-next-line security/no-inline-assembly\n        assembly {\n            success := delegatecall(txGas, to, add(data, 0x20), mload(data), 0, 0)\n        }\n    }\n\n    // Taken from GnosisSafe\n    // https://github.com/gnosis/safe-contracts/blob/development/contracts/libraries/CreateCall.sol\n    function performCreate(uint256 value, bytes memory deploymentData)\n    internal\n    returns (address newContract)\n    {\n        // solium-disable-next-line security/no-inline-assembly\n        assembly {\n            newContract := create(value, add(deploymentData, 0x20), mload(deploymentData))\n        }\n        require(newContract != address(0), \"Could not deploy contract\");\n        emit ContractCreated(newContract);\n    }\n\n    /* Modifiers */\n\n}\n",
  "sourcePath": "erc725/contracts/ERC725/ERC725X.sol",
  "compiler": {
    "name": "solc",
    "version": "0.6.10+commit.00c0fcaf.Emscripten.clang"
  },
  "schemaVersion": "3.2.5",
  "updatedAt": "2020-10-26T05:22:23.800Z",
  "devdoc": {
    "author": "Fabian Vogelsteller <fabian@lukso.network>",
    "details": "Implementation of a contract module which provides the ability to call arbitrary functions at any other smart contract and itself, including using `delegatecall`, as well creating contracts using `create` and `create2`. This is the basis for a smart contract based account system, but could also be used as a proxy account system. `execute` MUST only be called by the owner of the contract set via ERC173.",
    "methods": {
      "constructor": {
        "params": {
          "_newOwner": "the owner of the contract."
        }
      },
      "execute(uint256,address,uint256,bytes)": {
        "params": {
          "_data": "the call data, or the contract data to deploy",
          "_operation": "the operation to execute: CALL = 0; DELEGATECALL = 1; CREATE2 = 2; CREATE = 3;",
          "_to": "the smart contract or address to interact with. `_to` will be unused if a contract is created (operation 2 and 3)",
          "_value": "the value of ETH to transfer"
        }
      },
      "owner()": {
        "details": "Returns the address of the current owner."
      },
      "renounceOwnership()": {
        "details": "Leaves the contract without owner. It will not be possible to call `onlyOwner` functions anymore. Can only be called by the current owner. NOTE: Renouncing ownership will leave the contract without an owner, thereby removing any functionality that is only available to the owner."
      },
      "supportsInterface(bytes4)": {
        "details": "See {IERC165-supportsInterface}. Time complexity O(1), guaranteed to always use less than 30 000 gas."
      },
      "transferOwnership(address)": {
        "details": "Transfers ownership of the contract to a new account (`newOwner`). Can only be called by the current owner."
      }
    },
    "title": "ERC725 X executor"
  },
  "userdoc": {
    "methods": {
      "constructor": "Sets the owner of the contract",
      "execute(uint256,address,uint256,bytes)": {
        "notice": "Executes any other smart contract. Is only callable by the owner."
      }
    }
  }
}