{
  "contractName": "ERC725Account",
  "abi": [
    {
      "inputs": [
        {
          "internalType": "address",
          "name": "_newOwner",
          "type": "address"
        }
      ],
      "stateMutability": "nonpayable",
      "type": "constructor"
    },
    {
      "anonymous": false,
      "inputs": [
        {
          "indexed": true,
          "internalType": "address",
          "name": "contractAddress",
          "type": "address"
        }
      ],
      "name": "ContractCreated",
      "type": "event"
    },
    {
      "anonymous": false,
      "inputs": [
        {
          "indexed": true,
          "internalType": "bytes32",
          "name": "key",
          "type": "bytes32"
        },
        {
          "indexed": false,
          "internalType": "bytes",
          "name": "value",
          "type": "bytes"
        }
      ],
      "name": "DataChanged",
      "type": "event"
    },
    {
      "anonymous": false,
      "inputs": [
        {
          "indexed": true,
          "internalType": "uint256",
          "name": "_operation",
          "type": "uint256"
        },
        {
          "indexed": true,
          "internalType": "address",
          "name": "_to",
          "type": "address"
        },
        {
          "indexed": true,
          "internalType": "uint256",
          "name": "_value",
          "type": "uint256"
        },
        {
          "indexed": false,
          "internalType": "bytes",
          "name": "_data",
          "type": "bytes"
        }
      ],
      "name": "Executed",
      "type": "event"
    },
    {
      "anonymous": false,
      "inputs": [
        {
          "indexed": true,
          "internalType": "address",
          "name": "previousOwner",
          "type": "address"
        },
        {
          "indexed": true,
          "internalType": "address",
          "name": "newOwner",
          "type": "address"
        }
      ],
      "name": "OwnershipTransferred",
      "type": "event"
    },
    {
      "anonymous": false,
      "inputs": [
        {
          "indexed": true,
          "internalType": "address",
          "name": "sender",
          "type": "address"
        },
        {
          "indexed": true,
          "internalType": "uint256",
          "name": "value",
          "type": "uint256"
        }
      ],
      "name": "ValueReceived",
      "type": "event"
    },
    {
      "inputs": [
        {
          "internalType": "uint256",
          "name": "_operation",
          "type": "uint256"
        },
        {
          "internalType": "address",
          "name": "_to",
          "type": "address"
        },
        {
          "internalType": "uint256",
          "name": "_value",
          "type": "uint256"
        },
        {
          "internalType": "bytes",
          "name": "_data",
          "type": "bytes"
        }
      ],
      "name": "execute",
      "outputs": [],
      "stateMutability": "payable",
      "type": "function"
    },
    {
      "inputs": [
        {
          "internalType": "bytes32",
          "name": "_key",
          "type": "bytes32"
        }
      ],
      "name": "getData",
      "outputs": [
        {
          "internalType": "bytes",
          "name": "_value",
          "type": "bytes"
        }
      ],
      "stateMutability": "view",
      "type": "function"
    },
    {
      "inputs": [],
      "name": "owner",
      "outputs": [
        {
          "internalType": "address",
          "name": "",
          "type": "address"
        }
      ],
      "stateMutability": "view",
      "type": "function"
    },
    {
      "inputs": [],
      "name": "renounceOwnership",
      "outputs": [],
      "stateMutability": "nonpayable",
      "type": "function"
    },
    {
      "inputs": [
        {
          "internalType": "bytes32",
          "name": "_key",
          "type": "bytes32"
        },
        {
          "internalType": "bytes",
          "name": "_value",
          "type": "bytes"
        }
      ],
      "name": "setData",
      "outputs": [],
      "stateMutability": "nonpayable",
      "type": "function"
    },
    {
      "inputs": [
        {
          "internalType": "bytes4",
          "name": "interfaceId",
          "type": "bytes4"
        }
      ],
      "name": "supportsInterface",
      "outputs": [
        {
          "internalType": "bool",
          "name": "",
          "type": "bool"
        }
      ],
      "stateMutability": "view",
      "type": "function"
    },
    {
      "inputs": [
        {
          "internalType": "address",
          "name": "newOwner",
          "type": "address"
        }
      ],
      "name": "transferOwnership",
      "outputs": [],
      "stateMutability": "nonpayable",
      "type": "function"
    },
    {
      "stateMutability": "payable",
      "type": "receive"
    },
    {
      "inputs": [
        {
          "internalType": "bytes32",
          "name": "_hash",
          "type": "bytes32"
        },
        {
          "internalType": "bytes",
          "name": "_signature",
          "type": "bytes"
        }
      ],
      "name": "isValidSignature",
      "outputs": [
        {
          "internalType": "bytes4",
          "name": "magicValue",
          "type": "bytes4"
        }
      ],
      "stateMutability": "view",
      "type": "function"
    }
  ],
  "bytecode": "0x60806040523480156200001157600080fd5b50604051620021dc380380620021dc833981810160405260208110156200003757600080fd5b8101908080519060200190929190505050808081620000636301ffc9a760e01b6200039960201b60201c565b600062000075620004a260201b60201c565b905080600160006101000a81548173ffffffffffffffffffffffffffffffffffffffff021916908373ffffffffffffffffffffffffffffffffffffffff1602179055508073ffffffffffffffffffffffffffffffffffffffff16600073ffffffffffffffffffffffffffffffffffffffff167f8be0079c531659141344cd1fd0a4f28419497f9722a3daafe3b4186f6b6457e060405160405180910390a35062000124620004aa60201b60201c565b73ffffffffffffffffffffffffffffffffffffffff168173ffffffffffffffffffffffffffffffffffffffff161462000169576200016881620004d460201b60201c565b5b620001816344c028fe60e01b6200039960201b60201c565b5062000192620004aa60201b60201c565b73ffffffffffffffffffffffffffffffffffffffff168173ffffffffffffffffffffffffffffffffffffffff1614620001d757620001d681620004d460201b60201c565b5b620001ef632bd57b7360e01b6200039960201b60201c565b5050600060405180807f4552433732355479706500000000000000000000000000000000000000000000815250600a0190506040518091039020905060405180807f4552433732354163636f756e7400000000000000000000000000000000000000815250600d019050604051809103902060405160200180828152602001915050604051602081830303815290604052600260008381526020019081526020016000209080519060200190620002a8929190620006ef565b50807fece574603820d07bc9b91f2a932baadf4628aabcb8afba49776529c14a6104b26002600084815260200190815260200160002060405180806020018281038252838181546001816001161561010002031660029004815260200191508054600181600116156101000203166002900480156200036b5780601f106200033f576101008083540402835291602001916200036b565b820191906000526020600020905b8154815290600101906020018083116200034d57829003601f168201915b50509250505060405180910390a262000391631626ba7e60e01b6200039960201b60201c565b50506200079e565b63ffffffff60e01b817bffffffffffffffffffffffffffffffffffffffffffffffffffffffff1916141562000436576040517f08c379a000000000000000000000000000000000000000000000000000000000815260040180806020018281038252601c8152602001807f4552433136353a20696e76616c696420696e746572666163652069640000000081525060200191505060405180910390fd5b6001600080837bffffffffffffffffffffffffffffffffffffffffffffffffffffffff19167bffffffffffffffffffffffffffffffffffffffffffffffffffffffff1916815260200190815260200160002060006101000a81548160ff02191690831515021790555050565b600033905090565b6000600160009054906101000a900473ffffffffffffffffffffffffffffffffffffffff16905090565b620004e4620004a260201b60201c565b73ffffffffffffffffffffffffffffffffffffffff16600160009054906101000a900473ffffffffffffffffffffffffffffffffffffffff1673ffffffffffffffffffffffffffffffffffffffff1614620005a7576040517f08c379a00000000000000000000000000000000000000000000000000000000081526004018080602001828103825260208152602001807f4f776e61626c653a2063616c6c6572206973206e6f7420746865206f776e657281525060200191505060405180910390fd5b600073ffffffffffffffffffffffffffffffffffffffff168173ffffffffffffffffffffffffffffffffffffffff1614156200062f576040517f08c379a0000000000000000000000000000000000000000000000000000000008152600401808060200182810382526026815260200180620021b66026913960400191505060405180910390fd5b8073ffffffffffffffffffffffffffffffffffffffff16600160009054906101000a900473ffffffffffffffffffffffffffffffffffffffff1673ffffffffffffffffffffffffffffffffffffffff167f8be0079c531659141344cd1fd0a4f28419497f9722a3daafe3b4186f6b6457e060405160405180910390a380600160006101000a81548173ffffffffffffffffffffffffffffffffffffffff021916908373ffffffffffffffffffffffffffffffffffffffff16021790555050565b828054600181600116156101000203166002900490600052602060002090601f016020900481019282601f106200073257805160ff191683800117855562000763565b8280016001018555821562000763579182015b828111156200076257825182559160200191906001019062000745565b5b50905062000772919062000776565b5090565b6200079b91905b80821115620007975760008160009055506001016200077d565b5090565b90565b611a0880620007ae6000396000f3fe60806040526004361061007f5760003560e01c8063715018a61161004e578063715018a61461040f5780637f23690c146104265780638da5cb5b146104f8578063f2fde38b1461054f576100d1565b806301ffc9a7146100d65780631626ba7e1461014857806344c028fe1461026c57806354f6127f1461035b576100d1565b366100d1573461008d6105a0565b73ffffffffffffffffffffffffffffffffffffffff167f7e71433ddf847725166244795048ecf3e3f9f35628254ecbf73605666423349360405160405180910390a3005b600080fd5b3480156100e257600080fd5b5061012e600480360360208110156100f957600080fd5b8101908080357bffffffffffffffffffffffffffffffffffffffffffffffffffffffff191690602001909291905050506105a8565b604051808215151515815260200191505060405180910390f35b34801561015457600080fd5b506102186004803603604081101561016b57600080fd5b81019080803590602001909291908035906020019064010000000081111561019257600080fd5b8201836020820111156101a457600080fd5b803590602001918460018302840111640100000000831117156101c657600080fd5b91908080601f016020809104026020016040519081016040528093929190818152602001838380828437600081840152601f19601f82011690508083019250505050505050919291929050505061060f565b60405180827bffffffffffffffffffffffffffffffffffffffffffffffffffffffff19167bffffffffffffffffffffffffffffffffffffffffffffffffffffffff1916815260200191505060405180910390f35b6103596004803603608081101561028257600080fd5b8101908080359060200190929190803573ffffffffffffffffffffffffffffffffffffffff16906020019092919080359060200190929190803590602001906401000000008111156102d357600080fd5b8201836020820111156102e557600080fd5b8035906020019184600183028401116401000000008311171561030757600080fd5b91908080601f016020809104026020016040519081016040528093929190818152602001838380828437600081840152601f19601f8201169050808301925050505050505091929192905050506107a7565b005b34801561036757600080fd5b506103946004803603602081101561037e57600080fd5b8101908080359060200190929190505050610a63565b6040518080602001828103825283818151815260200191508051906020019080838360005b838110156103d45780820151818401526020810190506103b9565b50505050905090810190601f1680156104015780820380516001836020036101000a031916815260200191505b509250505060405180910390f35b34801561041b57600080fd5b50610424610b18565b005b34801561043257600080fd5b506104f66004803603604081101561044957600080fd5b81019080803590602001909291908035906020019064010000000081111561047057600080fd5b82018360208201111561048257600080fd5b803590602001918460018302840111640100000000831117156104a457600080fd5b91908080601f016020809104026020016040519081016040528093929190818152602001838380828437600081840152601f19601f820116905080830192505050505050509192919290505050610ca3565b005b34801561050457600080fd5b5061050d610e36565b604051808273ffffffffffffffffffffffffffffffffffffffff1673ffffffffffffffffffffffffffffffffffffffff16815260200191505060405180910390f35b34801561055b57600080fd5b5061059e6004803603602081101561057257600080fd5b81019080803573ffffffffffffffffffffffffffffffffffffffff169060200190929190505050610e60565b005b600033905090565b6000806000837bffffffffffffffffffffffffffffffffffffffffffffffffffffffff19167bffffffffffffffffffffffffffffffffffffffffffffffffffffffff1916815260200190815260200160002060009054906101000a900460ff169050919050565b600061062161061c610e36565b611070565b80156106395750610638631626ba7e60e01b6105a8565b5b1561074557610646610e36565b73ffffffffffffffffffffffffffffffffffffffff16631626ba7e84846040518363ffffffff1660e01b81526004018083815260200180602001828103825283818151815260200191508051906020019080838360005b838110156106b857808201518184015260208101905061069d565b50505050905090810190601f1680156106e55780820380516001836020036101000a031916815260200191505b50935050505060206040518083038186803b15801561070357600080fd5b505afa158015610717573d6000803e3d6000fd5b505050506040513d602081101561072d57600080fd5b810190808051906020019092919050505090506107a1565b61074f838361107d565b73ffffffffffffffffffffffffffffffffffffffff1661076d610e36565b73ffffffffffffffffffffffffffffffffffffffff16146107955763ffffffff60e01b61079e565b631626ba7e60e01b5b90505b92915050565b6107af6105a0565b73ffffffffffffffffffffffffffffffffffffffff16600160009054906101000a900473ffffffffffffffffffffffffffffffffffffffff1673ffffffffffffffffffffffffffffffffffffffff1614610871576040517f08c379a00000000000000000000000000000000000000000000000000000000081526004018080602001828103825260208152602001807f4f776e61626c653a2063616c6c6572206973206e6f7420746865206f776e657281525060200191505060405180910390fd5b818373ffffffffffffffffffffffffffffffffffffffff16857f1f920dbda597d7bf95035464170fa58d0a4b57f13a1c315ace6793b9f63688b8846040518080602001828103825283818151815260200191508051906020019080838360005b838110156108ec5780820151818401526020810190506108d1565b50505050905090810190601f1680156109195780820380516001836020036101000a031916815260200191505b509250505060405180910390a460006109c45a039050600085141561094a5761094484848484611318565b50610a5c565b60038514156109635761095d8383611331565b50610a5b565b60028514156109ec57600061097c836020855103611429565b905060606109908460006020875103611533565b9050600061099f868484611719565b90508073ffffffffffffffffffffffffffffffffffffffff167fcf78cf0d6f3d8371e1075c69c492ab4ec5d8cf23a1a239b6a51a1d00be7ca31260405160405180910390a2505050610a5a565b6040517f08c379a00000000000000000000000000000000000000000000000000000000081526004018080602001828103825260148152602001807f57726f6e67206f7065726174696f6e207479706500000000000000000000000081525060200191505060405180910390fd5b5b5b5050505050565b6060600260008381526020019081526020016000208054600181600116156101000203166002900480601f016020809104026020016040519081016040528092919081815260200182805460018160011615610100020316600290048015610b0c5780601f10610ae157610100808354040283529160200191610b0c565b820191906000526020600020905b815481529060010190602001808311610aef57829003601f168201915b50505050509050919050565b610b206105a0565b73ffffffffffffffffffffffffffffffffffffffff16600160009054906101000a900473ffffffffffffffffffffffffffffffffffffffff1673ffffffffffffffffffffffffffffffffffffffff1614610be2576040517f08c379a00000000000000000000000000000000000000000000000000000000081526004018080602001828103825260208152602001807f4f776e61626c653a2063616c6c6572206973206e6f7420746865206f776e657281525060200191505060405180910390fd5b600073ffffffffffffffffffffffffffffffffffffffff16600160009054906101000a900473ffffffffffffffffffffffffffffffffffffffff1673ffffffffffffffffffffffffffffffffffffffff167f8be0079c531659141344cd1fd0a4f28419497f9722a3daafe3b4186f6b6457e060405160405180910390a36000600160006101000a81548173ffffffffffffffffffffffffffffffffffffffff021916908373ffffffffffffffffffffffffffffffffffffffff160217905550565b610cab6105a0565b73ffffffffffffffffffffffffffffffffffffffff16600160009054906101000a900473ffffffffffffffffffffffffffffffffffffffff1673ffffffffffffffffffffffffffffffffffffffff1614610d6d576040517f08c379a00000000000000000000000000000000000000000000000000000000081526004018080602001828103825260208152602001807f4f776e61626c653a2063616c6c6572206973206e6f7420746865206f776e657281525060200191505060405180910390fd5b80600260008481526020019081526020016000209080519060200190610d949291906118c3565b50817fece574603820d07bc9b91f2a932baadf4628aabcb8afba49776529c14a6104b2826040518080602001828103825283818151815260200191508051906020019080838360005b83811015610df8578082015181840152602081019050610ddd565b50505050905090810190601f168015610e255780820380516001836020036101000a031916815260200191505b509250505060405180910390a25050565b6000600160009054906101000a900473ffffffffffffffffffffffffffffffffffffffff16905090565b610e686105a0565b73ffffffffffffffffffffffffffffffffffffffff16600160009054906101000a900473ffffffffffffffffffffffffffffffffffffffff1673ffffffffffffffffffffffffffffffffffffffff1614610f2a576040517f08c379a00000000000000000000000000000000000000000000000000000000081526004018080602001828103825260208152602001807f4f776e61626c653a2063616c6c6572206973206e6f7420746865206f776e657281525060200191505060405180910390fd5b600073ffffffffffffffffffffffffffffffffffffffff168173ffffffffffffffffffffffffffffffffffffffff161415610fb0576040517f08c379a00000000000000000000000000000000000000000000000000000000081526004018080602001828103825260268152602001806119696026913960400191505060405180910390fd5b8073ffffffffffffffffffffffffffffffffffffffff16600160009054906101000a900473ffffffffffffffffffffffffffffffffffffffff1673ffffffffffffffffffffffffffffffffffffffff167f8be0079c531659141344cd1fd0a4f28419497f9722a3daafe3b4186f6b6457e060405160405180910390a380600160006101000a81548173ffffffffffffffffffffffffffffffffffffffff021916908373ffffffffffffffffffffffffffffffffffffffff16021790555050565b600080823b119050919050565b600060418251146110f6576040517f08c379a000000000000000000000000000000000000000000000000000000000815260040180806020018281038252601f8152602001807f45434453413a20696e76616c6964207369676e6174757265206c656e6774680081525060200191505060405180910390fd5b60008060006020850151925060408501519150606085015160001a90507f7fffffffffffffffffffffffffffffff5d576e7357a4501ddfe92f46681b20a08260001c111561118f576040517f08c379a000000000000000000000000000000000000000000000000000000000815260040180806020018281038252602281526020018061198f6022913960400191505060405180910390fd5b601b8160ff16141580156111a75750601c8160ff1614155b156111fd576040517f08c379a00000000000000000000000000000000000000000000000000000000081526004018080602001828103825260228152602001806119b16022913960400191505060405180910390fd5b600060018783868660405160008152602001604052604051808581526020018460ff1660ff1681526020018381526020018281526020019450505050506020604051602081039080840390855afa15801561125c573d6000803e3d6000fd5b505050602060405103519050600073ffffffffffffffffffffffffffffffffffffffff168173ffffffffffffffffffffffffffffffffffffffff16141561130b576040517f08c379a00000000000000000000000000000000000000000000000000000000081526004018080602001828103825260188152602001807f45434453413a20696e76616c6964207369676e6174757265000000000000000081525060200191505060405180910390fd5b8094505050505092915050565b6000806000845160208601878987f19050949350505050565b600081516020830184f09050600073ffffffffffffffffffffffffffffffffffffffff168173ffffffffffffffffffffffffffffffffffffffff1614156113e0576040517f08c379a00000000000000000000000000000000000000000000000000000000081526004018080602001828103825260198152602001807f436f756c64206e6f74206465706c6f7920636f6e74726163740000000000000081525060200191505060405180910390fd5b8073ffffffffffffffffffffffffffffffffffffffff167fcf78cf0d6f3d8371e1075c69c492ab4ec5d8cf23a1a239b6a51a1d00be7ca31260405160405180910390a292915050565b6000816020830110156114a4576040517f08c379a00000000000000000000000000000000000000000000000000000000081526004018080602001828103825260128152602001807f746f427974657333325f6f766572666c6f77000000000000000000000000000081525060200191505060405180910390fd5b602082018351101561151e576040517f08c379a00000000000000000000000000000000000000000000000000000000081526004018080602001828103825260158152602001807f746f427974657333325f6f75744f66426f756e6473000000000000000000000081525060200191505060405180910390fd5b60008260208501015190508091505092915050565b606081601f830110156115ae576040517f08c379a000000000000000000000000000000000000000000000000000000000815260040180806020018281038252600e8152602001807f736c6963655f6f766572666c6f7700000000000000000000000000000000000081525060200191505060405180910390fd5b828284011015611626576040517f08c379a000000000000000000000000000000000000000000000000000000000815260040180806020018281038252600e8152602001807f736c6963655f6f766572666c6f7700000000000000000000000000000000000081525060200191505060405180910390fd5b8183018451101561169f576040517f08c379a00000000000000000000000000000000000000000000000000000000081526004018080602001828103825260118152602001807f736c6963655f6f75744f66426f756e647300000000000000000000000000000081525060200191505060405180910390fd5b60608215600081146116bc5760405191506020820160405261170d565b6040519150601f8416801560200281840101858101878315602002848b0101015b818310156116fa57805183526020830192506020810190506116dd565b50868552601f19601f8301166040525050505b50809150509392505050565b60008084471015611792576040517f08c379a000000000000000000000000000000000000000000000000000000000815260040180806020018281038252601d8152602001807f437265617465323a20696e73756666696369656e742062616c616e636500000081525060200191505060405180910390fd5b60008351141561180a576040517f08c379a00000000000000000000000000000000000000000000000000000000081526004018080602001828103825260208152602001807f437265617465323a2062797465636f6465206c656e677468206973207a65726f81525060200191505060405180910390fd5b8383516020850187f59050600073ffffffffffffffffffffffffffffffffffffffff168173ffffffffffffffffffffffffffffffffffffffff1614156118b8576040517f08c379a00000000000000000000000000000000000000000000000000000000081526004018080602001828103825260198152602001807f437265617465323a204661696c6564206f6e206465706c6f790000000000000081525060200191505060405180910390fd5b809150509392505050565b828054600181600116156101000203166002900490600052602060002090601f016020900481019282601f1061190457805160ff1916838001178555611932565b82800160010185558215611932579182015b82811115611931578251825591602001919060010190611916565b5b50905061193f9190611943565b5090565b61196591905b80821115611961576000816000905550600101611949565b5090565b9056fe4f776e61626c653a206e6577206f776e657220697320746865207a65726f206164647265737345434453413a20696e76616c6964207369676e6174757265202773272076616c756545434453413a20696e76616c6964207369676e6174757265202776272076616c7565a26469706673582212203c231a8d96b0eabacdb075ae963a76d6f76e24a5334c28a864005e3b525bdd6264736f6c634300060a00334f776e61626c653a206e6577206f776e657220697320746865207a65726f2061646472657373",
  "immutableReferences": {},
  "source": "// SPDX-License-Identifier: Apache-2.0\npragma solidity ^0.6.0;\n\n// modules\nimport \"./ERC725.sol\";\nimport \"../IERC1271.sol\";\n\n// libraries\nimport \"@openzeppelin/contracts/cryptography/ECDSA.sol\";\nimport \"../helpers/UtilsLib.sol\";\n\n/**\n * @title ERC725Account\n * @dev Bundles ERC725X and ERC725Y, and ERC1271 and allows receiving native tokens.\n *\n *  @author Fabian Vogelsteller <fabian@lukso.network>\n */\n\n// TODO add ERC777, ERC223, ERC721 functions?\n\ncontract ERC725Account is ERC725, IERC1271  {\n\n    bytes4 internal constant _INTERFACE_ID_ERC1271 = 0x1626ba7e;\n    bytes4 internal constant _ERC1271FAILVALUE = 0xffffffff;\n\n    event ValueReceived(address indexed sender, uint256 indexed value);\n\n    /**\n     * @notice Sets the owner of the contract\n     * @param _newOwner the owner of the contract.\n     */\n    constructor(address _newOwner)\n    ERC725(_newOwner)\n    public\n    {\n        bytes32 key = keccak256('ERC725Type');\n        store[key] = abi.encodePacked(keccak256('ERC725Account'));\n        emit DataChanged(key, store[key]);\n\n        _registerInterface(_INTERFACE_ID_ERC1271);\n    }\n\n    receive()\n    external\n    payable\n    {\n        emit ValueReceived(_msgSender(), msg.value);\n    }\n\n//    TODO to be discussed\n//    function fallback()\n//    public\n//    {\n//        address to = owner();\n//        assembly {\n//            calldatacopy(0, 0, calldatasize())\n//            let result := staticcall(gas(), to, 0, calldatasize(), 0, 0)\n//            returndatacopy(0, 0, returndatasize())\n//            switch result\n//            case 0  { revert (0, returndatasize()) }\n//            default { return (0, returndatasize()) }\n//        }\n//    }\n\n\n    /**\n    * @notice Checks if an owner signed `_data`.\n    * ERC1271 interface.\n    *\n    * @param _hash hash of the data signed//Arbitrary length data signed on the behalf of address(this)\n    * @param _signature owner's signature(s) of the data\n    */\n    function isValidSignature(bytes32 _hash, bytes memory _signature)\n    override\n    public\n    view\n    returns (bytes4 magicValue)\n    {\n        if (\n            UtilsLib.isContract(owner()) &&\n            supportsInterface(_INTERFACE_ID_ERC1271)\n        ){\n            return IERC1271(owner()).isValidSignature(_hash, _signature);\n        } else {\n            return owner() == ECDSA.recover(_hash, _signature)\n            ? _INTERFACE_ID_ERC1271\n            : _ERC1271FAILVALUE;\n        }\n    }\n}\n",
  "sourcePath": "erc725/contracts/ERC725/ERC725Account.sol",
  "compiler": {
    "name": "solc",
    "version": "0.6.10+commit.00c0fcaf.Emscripten.clang"
  },
  "schemaVersion": "3.2.5",
  "updatedAt": "2020-10-26T05:22:23.798Z",
  "devdoc": {
    "author": "Fabian Vogelsteller <fabian@lukso.network>",
    "details": "Bundles ERC725X and ERC725Y, and ERC1271 and allows receiving native tokens.",
    "methods": {
      "constructor": {
        "params": {
          "_newOwner": "the owner of the contract."
        }
      },
      "execute(uint256,address,uint256,bytes)": {
        "params": {
          "_data": "the call data, or the contract data to deploy",
          "_operation": "the operation to execute: CALL = 0; DELEGATECALL = 1; CREATE2 = 2; CREATE = 3;",
          "_to": "the smart contract or address to interact with. `_to` will be unused if a contract is created (operation 2 and 3)",
          "_value": "the value of ETH to transfer"
        }
      },
      "getData(bytes32)": {
        "params": {
          "_key": "the key which value to retrieve"
        },
        "returns": {
          "_value": "The date stored at the key"
        }
      },
      "isValidSignature(bytes32,bytes)": {
        "params": {
          "_hash": "hash of the data signed//Arbitrary length data signed on the behalf of address(this)",
          "_signature": "owner's signature(s) of the data"
        }
      },
      "owner()": {
        "details": "Returns the address of the current owner."
      },
      "renounceOwnership()": {
        "details": "Leaves the contract without owner. It will not be possible to call `onlyOwner` functions anymore. Can only be called by the current owner. NOTE: Renouncing ownership will leave the contract without an owner, thereby removing any functionality that is only available to the owner."
      },
      "setData(bytes32,bytes)": {
        "params": {
          "_key": "the key which value to retrieve",
          "_value": "the bytes to set."
        }
      },
      "supportsInterface(bytes4)": {
        "details": "See {IERC165-supportsInterface}. Time complexity O(1), guaranteed to always use less than 30 000 gas."
      },
      "transferOwnership(address)": {
        "details": "Transfers ownership of the contract to a new account (`newOwner`). Can only be called by the current owner."
      }
    },
    "title": "ERC725Account"
  },
  "userdoc": {
    "methods": {
      "constructor": "Sets the owner of the contract",
      "execute(uint256,address,uint256,bytes)": {
        "notice": "Executes any other smart contract. Is only callable by the owner."
      },
      "getData(bytes32)": {
        "notice": "Gets data at a given `key`"
      },
      "isValidSignature(bytes32,bytes)": {
        "notice": "Checks if an owner signed `_data`. ERC1271 interface."
      },
      "setData(bytes32,bytes)": {
        "notice": "Sets data at a given `key`"
      }
    }
  }
}