{
  "contractName": "MyCounter",
  "abi": [
    {
      "inputs": [],
      "stateMutability": "nonpayable",
      "type": "constructor"
    },
    {
      "stateMutability": "payable",
      "type": "receive"
    },
    {
      "inputs": [],
      "name": "increment",
      "outputs": [],
      "stateMutability": "nonpayable",
      "type": "function"
    },
    {
      "inputs": [],
      "name": "get",
      "outputs": [
        {
          "internalType": "uint256",
          "name": "",
          "type": "uint256"
        }
      ],
      "stateMutability": "view",
      "type": "function"
    }
  ],
  "bytecode": "0x608060405234801561001057600080fd5b506000808190555060bd806100266000396000f3fe60806040526004361060295760003560e01c80636d4ce63c146034578063d09de08a14605c57602f565b36602f57005b600080fd5b348015603f57600080fd5b5060466070565b6040518082815260200191505060405180910390f35b348015606757600080fd5b50606e6079565b005b60008054905090565b60016000540160008190555056fea264697066735822122005f80174ff6306477c013da0535b56dfde1b99256ecacb379c64cea550bed5fa64736f6c634300060a0033",
  "immutableReferences": {},
  "source": "// SPDX-License-Identifier: Apache-2.0\npragma solidity ^0.6.1;\n\ncontract MyCounter {\n    uint256 count;\n\n    constructor() public {\n        count = 0;\n    }\n\n    function increment() public {\n        count = count + 1;\n    }\n\n    function get() public view returns (uint256) {\n        return count;\n    }\n\n    receive() external payable {}\n}\n",
  "sourcePath": "/Users/azlan/Projects/mampu/training/identity/test-id/contracts/MyCounter.sol",
  "compiler": {
    "name": "solc",
    "version": "0.6.10+commit.00c0fcaf.Emscripten.clang"
  },
  "schemaVersion": "3.2.5",
  "updatedAt": "2020-10-27T09:53:50.735Z",
  "devdoc": {
    "methods": {}
  },
  "userdoc": {
    "methods": {}
  }
}